:100000003810FE1FD5050000E5080000F13900009A
:10001000E5050000E5050000E5050000E505000038
:10002000000000000000000000000000E5050000E6
:10003000E5050000000000003339000095050000D0
:1000400071130000A11200002D14000079140000AB
:1000500000000000000000000000000000000000A0
:100060000000000000000000000000000000000090
:100070000000000000000000000000000000000080
:100080000000000000000000000000000000000070
:10040000FFFFFFFFFFFDFFFFFCFFFFFFFFFFFFFF01
:10041000FCFFFFFFFFFFFFFFFCFFFF00FFFFFF00F0
:10042000FCFF0F20FFFF0F20FCFF7F40FFFF7F40FE
:10043000FCFF0D40FFFF0D40FFFFFFFFFFFFFFFF31
:10044000FFFFFFFFFFFFFFFFFFFFFFFFFFFFFFFFBC
:10045000FFFFFFFFFFFFFFFFFFFFFFFFFFFFFFFFAC
:10046000FFFFFFFFFFFFFFFFFFFFFFFFFFFFFFFF9C
:10047000FFFFFFFFFFFFFFFFFFFFFFFFFFFFFFFF8C
:10048000FFFFFFFFFFFFFFFFFFFFFFFFFFFFFFFF7C
:10049000FFFFFFFFFFFFFFFFFFFFFFFFFFFFFFFF6C
:1004A000FFFFFFFFFFFFFFFFFFFFFFFFFFFFFFFF5C
:1004B000FFFFFFFFFFFFFFFFFFFFFFFFFFFFFFFF4C
:1004C000FFFFFFFFFFFFFFFFFFFFFFFFFFFFFFFF3C
:1004D000FFFFFFFFFFFFFFFFFFFFFFFFFFFFFFFF2C
:1004E000FFFFFFFFFFFFFFFFFFFFFFFFFFFFFFFF1C
:1004F000FFFFFFFFFFFFFFFFFFFFFFFFFFFFFFFF0C
:1005000010B5054C237833B9044B13B10448AFF34D
:1005100000800123237010BDA006FE1F0000000014
:1005200074B00000084B10B51BB108490848AFF380
:1005300000800848036803B910BD074B002BFBD0AF
:10054000BDE81040184700BF00000000A406FE1FD1
:1005500074B000008406FE1F0000000080B400AFED
:10056000BFF34F8F0549054BDB6803F4E062044B92
:100570001343CB60BFF34F8F00BFFDE700ED00E0FA
:100580000400FA0580B582B000AF03463960FB7104
:10059000FFF7E4FF80B500AF04F006FD03F0DEFCDA
:1005A00004F022FD00BF80BD80B582B000AF0346DD
:1005B000FB71FB79022B05D1044B5B68194604489B
:1005C00000F0E6FA00BF0837BD4680BDE88A0000AB
:1005D000040BFE1F80B500AF00F00CF800F0A0FF88
:1005E000FEE700BF80B400AF00BE00BFBD465DF8AF
:1005F000047B704780B582B000AF2B4B4FF4700284
:10060000C3F88820284B294A9A600020FFF7CCFFC6
:1006100000F0E6F80120FFF7C7FF254B00229A8083
:10062000234B4FF425421A80214B224A9A60204BDB
:10063000214ADA60214B4FF48052A3F820211C4B51
:1006400001229A801E4A1F4BD31A1A4600211D48C8
:1006500007F07AFD1C4A1D4BD31A1A461C491B4849
:1006600007F0D8FC1B4A1C4BD31A9B103B6000239D
:100670007B6007E0184A7B6852F8233098477B6814
:1006800001337B607A683B689A42F3DB00F04CF8F8
:100690000220FFF789FF00F04BF9002000F000F97D
:1006A00000BF0837BD4680BD00ED00E0000000003F
:1006B000000D0040380CFE1F3810FE1F0060004087
:1006C000340CFE1FA006FE1F8806FE1F0000FE1F42
:1006D00078B000008006FE1F7806FE1F80B400AFD1
:1006E000044B0022A3F8002100BFBD465DF8047B47
:1006F000704700BF00C0014080B400AF094B012229
:10070000A3F8042100BF074BB3F804319BB2002BC0
:10071000F9D1044B0122A3F8002100BFBD465DF8CA
:10072000047B704700C0014080B483B000AF0B4B26
:1007300093F82630DBB27B60094A7B6852F823309D
:10074000064A126AC2F30262D2B2D340054A13606B
:1007500000BF0C37BD465DF8047B704700E00140E8
:100760008806FE1F3409FE1F80B500AF074B02222A
:1007700083F81C21064B052283F82620044B054AEA
:100780001A62FFF7D1FF00BF80BD00BF00C001406B
:1007900000E001402112012180B500AF0B4B0C4A53
:1007A0001A600A4B0B4A5A60084B4FF400429A6099
:1007B000064B094ADA60054B4FF400421A61034BBD
:1007C000064A5A61FFF7B0FF00BF80BD8806FE1FD2
:1007D000002D310100127A0000366E01001C4E0E11
:1007E00080B500AF2D4B4AF20352A3F8FE23FFF76A
:1007F00075FFFFF7D1FF294B002283F81324274B05
:10080000092283F8A220254B93F88034DBB2002B19
:1008100007D0224B002283F88124204B002283F84A
:1008200080241E4B062283F8A5201C4B002283F84F
:10083000322000BF194B93F83C30C3F3C003DBB246
:10084000012BF7D1154B42F201721A85134B00228E
:1008500083F82A2000BF114B93F83C30C3F34013B8
:10086000DBB2012BF7D1FFF77FFF0C4B012283F89E
:1008700030200A4B012283F85220084B012283F8D2
:100880005320064B402283F82420044B4FF425428A
:10089000A3F8FE23FFF730FF00BF80BD00E001405A
:1008A00080B483B000AF786000BF0C37BD465DF800
:1008B000047B704780B582B000AF0346FB71FB79C3
:1008C000074A52F82330002B06D0FB79044A52F82D
:1008D0002330FA791046984700BF0837BD4680BDDF
:1008E0003809FE1F80B582B000AF104BB3F840311D
:1008F000BB800023FB710EE0BA88FB7922FA03F378
:1009000003F00103002B03D0FB791846FFF7D2FF59
:10091000FB790133FB71FB790F2BEDD9034ABB88BF
:10092000A2F8303100BF0837BD4680BD00600040EE
:1009300080B483B000AF00237B600CE00A4A0B490F
:100940007B6831F8133019467B68C03342F82310B6
:100950007B6801337B607B685F2BEFD900BF0C376E
:10096000BD465DF8047B7047006000402C8B0000A2
:1009700080B487B000AF0346FB7100237B61EFF3C7
:100980001083FB60FB687B610123BB60BB6883F362
:100990001088FB79194A32F813309BB2002B09D02A
:1009A000FB79164A32F8132092B2013A91B2134AF7
:1009B00022F81310FB79114A32F813309BB2002B46
:1009C00011D10F490E4BB3F8FE339AB20D4B1343BE
:1009D0009AB2FB790C4830F81330DB439BB21340DA
:1009E0009BB2A1F8FE337B693B613B6983F31088BE
:1009F00000BF1C37BD465DF8047B7047FC0AFE1F34
:100A000000E0014000A5FFFFA08A000080B487B08D
:100A100000AF0346FB7100237B61EFF31083FB60A3
:100A2000FB687B610123BB60BB6883F31088FB79A3
:100A3000154A32F813309BB2002B0FD11349134BD8
:100A4000B3F8FE339AB2FB79114830F813301343F0
:100A50009AB2104B13439BB2A1F8FE33FB790A4ABA
:100A600032F8132092B2013291B2074A22F81310E1
:100A70007B693B613B6983F3108800BF1C37BD462F
:100A80005DF8047B704700BFFC0AFE1F00E00140D8
:100A9000A08A000000A5FFFF80B483B000AF03462A
:100AA000FB800A49FB881B0A9BB21A46FB88DBB213
:100AB0001201134451F82330C3F34003DBB218464C
:100AC0000C37BD465DF8047B704700BF000804404A
:100AD00080B485B000AF0023FB60EFF310837B6030
:100AE0007B68FB6001233B603B6883F310880D4B00
:100AF0001B68002B05D10C4B0022DA700A4B4022F8
:100B0000DA70084B1B680133064A1360FB68BB6050
:100B1000BB6883F3108800BF1437BD465DF8047BC3
:100B2000704700BF7809FE1F000D044080B485B0F7
:100B300000AF0023FB60EFF310837B607B68FB60FA
:100B400001233B603B6883F310880F4B1B68002B2D
:100B500004D00D4B1B68013B0B4A13600A4B1B680A
:100B6000002B05D1094B0022DA70084B8022DA7085
:100B7000FB68BB60BB6883F3108800BF1437BD46B9
:100B80005DF8047B704700BF7809FE1F000D04402C
:100B900080B584B000AF786039607B68FB60FB682B
:100BA000044A1A60386800F0E7F900231846103745
:100BB000BD4680BD54524F5080B485B000AF7860C0
:100BC0007B68FB60FB6800221A600023184614371C
:100BD000BD465DF8047B704780B582B000AF786099
:100BE0003960386800F0C8F9002318460837BD4658
:100BF00080BD00BF80B588B000AFF8600B467A605A
:100C00007B817B89BB827B683B6101233B8307F14E
:100C10001003FB6107F11803184600F059FAFFF7BB
:100C200057FF7B897968184600F016FAFFF77EFFB8
:100C3000002318462037BD4680BD00BF80B584B074
:100C400000AFF8600B467A607B817B891846FFF71E
:100C500023FF0346DAB27B681A7000231846103768
:100C6000BD4680BD80B487B000AFF8600B467A60A7
:100C70007B817B891B0A9BB2DBB25B0103F1804362
:100C800003F580237B617B695B689AB27B681A807D
:100C9000002318461C37BD465DF8047B704700BF33
:100CA00080B487B000AFF860084611461A46034684
:100CB0007B810B463B811346FB803A89FB881340BE
:100CC000FB82B7F90830DB431AB2B7F9063013409C
:100CD0001BB2BB827B891B0A9BB2DBB25B0103F1B7
:100CE000804303F580233B61BB8A1A04FB8A1A43C5
:100CF0003B699A60002318461C37BD465DF8047BAB
:100D0000704700BF80B487B000AF78600B467B802F
:100D100013467B700023FB820023BB827B8823F079
:100D2000FF037B827B88DBB23B823B8A012202FA93
:100D300003F3FB817B78002B02D1FB89BB8201E0AE
:100D4000FB89FB827B8A1B0A9BB2DBB25B0103F14E
:100D5000804303F58023BB60BB8A1A04FB8A1A43D5
:100D6000BB689A60002318461C37BD465DF8047BBB
:100D7000704700BF80B48BB000AFF86008461146E2
:100D80001A4603467B810B463B811346FB807B89D9
:100D90001B0A9BB2DBB25B0103F1804303F58023A6
:100DA0007B627B6A1B683B623A89FB8813409BB27B
:100DB000FB613B89DA43FB881340BB613B6A7B6183
:100DC0007A69FB6913437B61BB69DB437A69134032
:100DD0007B617B6A7A691A60002318462C37BD460E
:100DE0005DF8047B704700BF80B487B000AFF86047
:100DF0000B467A607B817B891B0A9BB2DBB25B016D
:100E000003F1804303F580237B617B695B68C3F357
:100E10000F439AB27B681A80002318461C37BD46E0
:100E20005DF8047B704700BF80B487B000AFF86006
:100E30000B467A607B817B891B0A9BB2DBB25B012C
:100E400003F1804303F580237B617B695B68C3F317
:100E50000F437B827B89DBB2012202FA03F33B82E0
:100E60007A8A3B8A13409BB23A8A9A4203D17B68C2
:100E700001221A7002E07B6800221A7000231846D3
:100E80001C37BD465DF8047B704700BF80B487B057
:100E900000AFF860084611461A4603467B810B46B0
:100EA0003B811346FB803A89FB881340FB82B7F9EC
:100EB0000830DB431AB2B7F9063013401BB2BB82CD
:100EC0007B891B0A9BB2DBB25B0103F1804303F514
:100ED00080233B61BB8A1A04FB8A1A433B69DA60B0
:100EE000002318461C37BD465DF8047B704700BFE1
:100EF00080B584B000AF78600B467B8013467B7072
:100F00007B887B817B8923F0FF037B817B893B810D
:100F10000023FB810023BB817B78012B06D17B88DA
:100F2000DBB2012202FA03F3FB8105E07B88DBB22E
:100F3000012202FA03F3BB817B78BA89F9893889E7
:100F400000F046F8002318461037BD4680BD00BFAC
:100F500080B483B000AF78600B46FB701346BB7063
:100F6000044ABB781370002318460C37BD465DF861
:100F7000047B7047000D044080B584B000AF7860FA
:100F8000786800F0A5F87B68BB60FFF7A1FD00233F
:100F9000FB8111E0BB685A68FB89DB001344988829
:100FA000BB685A68FB89DB0013441B68194600F0D4
:100FB00053F8FB890133FB81BB681B88FA899A428D
:100FC000E8D3FFF7B3FD00BF1037BD4680BD00BFBB
:100FD00090B484B000AF0446084611461A46234632
:100FE000FB800346BB800B467B8013467B7000234F
:100FF000FB60FB881B0A9BB2DBB25B0103F1804301
:1010000003F58023BB60BB68DB68FB607B78012B4A
:101010000DD1BB88FA681343FB607B881B046FEA21
:1010200013436FEA0343FA681340FB600CE07B88CC
:101030001B04FA681343FB60BB886FEA03436FEA43
:101040001343FA681340FB60BB68FA68DA6000BFBC
:101050001037BD4690BC704780B483B000AF0346E4
:101060003960FB803B6803F48033002B1CD01749A8
:10107000FB881B0A9BB21A46FB88DBB212011A449A
:1010800051F822306FF3104341F822300F48FB88AB
:101090001B0A9BB21946FB88DBB23A6822F4803205
:1010A00009010B4440F823200849FB881B0A9BB226
:1010B0001A46FB88DBB2120113443A6841F8232038
:1010C00000BF0C37BD465DF8047B70470008044044
:1010D00080B588B000AF78600023FB750023BB7536
:1010E0000023FB6139E00023BB6130E07B685A6874
:1010F000FB69DB0013449A882949BB6931F8133036
:101100009A4221D17B685A68FB69DB0013441B6853
:1011100003F0F8533B613B69B3F1807F03D03B6937
:10112000B3F1106F08D10122BB6902FA03F3DAB2FE
:10113000FB7D1343FB7507E00122BB6902FA03F351
:10114000DAB2BB7D1343BB75BB690133BB61BB69BD
:10115000022BCBD9FB690133FB617B681B881A46E4
:10116000FB699A42BFD80120FFF750FC0D4B93F862
:10117000BB34FB73FA7BFB7D1343FB73BB7DDB430B
:10118000DAB2FB7B1340FB73064AFB7B82F8BB346D
:101190000120FFF7EDFB00BF2037BD4680BD00BF3B
:1011A000E08A000000E0014080B483B000AFEFF3BC
:1011B00003837B607B683B603B88C3F308039BB27F
:1011C000DBB2103BDBB25BB218460C37BD465DF8B4
:1011D000047B704780B483B000AF0346FB710849BD
:1011E00097F9073003F1C00251F822306FF3104332
:1011F00041F8223000BF0C37BD465DF8047B7047D4
:101200000060004080B483B000AF0346FB7197F9E3
:101210000730044A52F8233018460C37BD465DF8B3
:10122000047B70477C09FE1F90B58BB000AFF8605F
:10123000B9601346FB71FB689B6A7B627B6A002B7B
:1012400003D107F114037B6205E07B6A07F1140404
:101250000FCB84E80F00FB68DB691B781A467B6ABA
:101260001A607B6ABA689A607B6AFA791A71FB68BD
:10127000DA6A7B6ADA60FB685B6A786A9847FB68BF
:101280009B6A002B07D0FB689B6A1C4607F114037E
:101290000FCB84E80F0000BF2C37BD4690BD00BFC8
:1012A00080B584B000AFFFF77FFF0346FB7397F96B
:1012B0000F301846FFF78EFF97F90F301846FFF7EB
:1012C000A1FFB860BB68DB691B69002B30D1BB682C
:1012D0001B69002B2CD0BB689B7803F00303DBB2A7
:1012E000022B0BD1BB681A6ABB68DB681B886FEAEC
:1012F000C3536FEAD3539BB2D38105E0BB681B6A2B
:10130000BA68D2681278DA70BB681B69BA689278DA
:10131000C2F30102D2B29A1ABB681A61BB68DB68D9
:10132000BA689278C2F30102D2B21A44BB68DA609A
:10133000BB681B69002B17D1BB681B6A9B78FB71CC
:10134000FB7943F00403FB71FB7903F07F03FB712E
:10135000BB681B6AFA799A70BB680022DA60802247
:101360000021B868FFF760FF00BF1037BD4680BDA1
:1013700080B584B000AFFFF717FF0346FB7397F902
:101380000F301846FFF726FF97F90F301846FFF782
:1013900039FFB860BB689B7803F00303DBB2022B14
:1013A00007D1BB681B6A1B8A9BB2C3F308037B602F
:1013B00004E0BB681B6A5B79DBB27B60BB689B693E
:1013C000002B06D17B6804221946B868FFF72CFF72
:1013D00028E0BB685869BB689B78C3F30103DBB2A4
:1013E0001A463B1D194606F015FEBB685B69BA68D4
:1013F0009278C2F30102D2B21A44BB685A61BB6848
:101400009B69BA689278C2F30102D2B29A1ABB6899
:101410009A61BB689B69002B04D101220021B86846
:10142000FFF702FF00BF1037BD4680BD80B582B018
:1014300000AFFFF7B9FE0346FB7197F90730184676
:10144000FFF7E0FE38603B681B6A3A68126A9278E0
:10145000D2B202F07B02D2B29A7002220021386826
:10146000FFF7E2FE97F907301846FFF7B3FE00BF1B
:101470000837BD4680BD00BF80B584B000AFFFF720
:1014800093FE0346BB7297F90A301846FFF7BAFE7F
:1014900078600023FB607B689B7803F00303DBB27A
:1014A000022B07D17B681B6A1B8A9BB2C3F308031C
:1014B000FB6004E07B681B6A5B79DBB2FB607B68E6
:1014C0001B6A1B79DBB203F03803FB72FB7A03F073
:1014D0001003002B0BD07B681B6A1B7FC3F3000338
:1014E000DBB2002B03D1FB7A43F04003FB727B6835
:1014F0001B6A7A68126A1279D2B222F03802D2B22A
:101500001A71FB7A1A46F9687868FFF78DFE97F929
:101510000A301846FFF75EFE00BF1037BD4680BD9B
:1015200080B500AF06F0EEFC0023184680BD00BF7A
:1015300080B582B000AF78600B46FB70094B1B6C26
:10154000002B04D18A220849084804F053FD054BBA
:101550001B6C1B68FA7879680248984700BF083707
:10156000BD4680BDBC06FE1FAC8E0000FC8B00009B
:1015700080B582B000AF78600B46FB70094B1B6CE6
:10158000002B04D190220849084804F033FD054B94
:101590001B6C5B68FA7879680248984700BF083787
:1015A000BD4680BDBC06FE1FB88E0000FC8B00004F
:1015B00080B582B000AF7860094B1B6C002B04D162
:1015C00096220849084804F015FD054B1B6C9B68E2
:1015D000796803489847034618460837BD4680BDDA
:1015E000BC06FE1FC88E0000FC8B000080B582B0D8
:1015F00000AF7860124B1B6C002B04D19D22114967
:10160000114804F0F7FC7B681B78502B06D07B68F0
:101610001B78702B02D06FF009030DE0084B1B6C98
:101620009B69002B02D16FF0050305E0044B1B6C96
:101630009B6978689847034618460837BD4680BDC1
:10164000BC06FE1FD48E0000FC8B000080B586B067
:1016500000AF786000237B6107F10C0300221A6061
:101660009A807B681B78FB7406F07AFC0246FB7C50
:10167000013313441B7803F00303022B02D1FB7CDC
:10168000203B00E0FB7CDBB23B737B685B78BB7488
:1016900006F066FC0246BB7C013313441B7803F062
:1016A0000303022B02D1BB7C203B00E0BB7CDBB2FE
:1016B0007B73786803F09CFE03467B617B69052B96
:1016C000A8BF05237B617B69023B7B617B6802339A
:1016D0001B782E2B01D02E23BB737B68991C7A6953
:1016E00007F10C03184606F079FF07F10C031846C2
:1016F000FFF77CFF034618461837BD4680BD00BF84
:1017000080B500AF0C4804F071FB0C4804F06EFB90
:101710000B4804F06BFB0B4804F068FB0A4804F02C
:1017200065FB0A4804F062FB094804F05FFB0948C6
:1017300004F05CFB00BF80BD148C0000248C000012
:10174000508C0000908C0000B08C0000208D0000B8
:10175000688D0000CC8D000080B584B000AF78604B
:1017600039607B68022B02DCFFF7CAFF1BE03B6895
:1017700008331B681846FFF769FFF860FB68002B09
:1017800009DA3B6808331B681946084804F02EFB49
:10179000FFF7B6FF07E03B6808331B68FA68194695
:1017A000034804F023FB1037BD4680BDE48D0000E4
:1017B000008E000080B584B000AF786039607B682F
:1017C000032B02DCFFF79CFF6DE03B6808331B68CE
:1017D000184601F0EDFA0346002B13D13B6808339D
:1017E0001B681846FFF732FFF860FB68002B10DA21
:1017F0003B6808331B6819462C4804F0F7FAFFF7DA
:101800007FFF50E03B6808331B68184606F094FBE6
:10181000F8603B680C331B681946254803F0C6FD89
:101820000346002B02D10023BB6036E03B680C333B
:101830001B6819461F4803F0B9FD0346002B02D16F
:101840000123BB6029E03B680C331B6819461A482A
:1018500003F0ACFD0346002B02D10223BB601CE069
:101860003B680C331B681946144803F09FFD034680
:10187000002B02D10323BB600FE03B680C331B68D5
:1018800019460F4803F092FD0346002B02D10423B2
:10189000BB6002E0FFF734FF05E0BB68DBB219462E
:1018A000F868FFF745FE1037BD4680BDE48D0000A7
:1018B0000C8E0000148E00001C8E00002C8E000088
:1018C0003C8E000080B584B000AF786039607B68E2
:1018D000022B02DCFFF714FF34E03B6808331B687F
:1018E000184601F065FA0346002B13D13B68083314
:1018F0001B681846FFF7AAFEF860FB68002B10DA99
:101900003B6808331B681946104804F06FFAFFF76C
:10191000F7FE17E03B6808331B68184606F00CFB1F
:10192000F860F868FFF744FE0346FB72FB7A012B70
:1019300004D1F968064804F059FA03E0F96805484B
:1019400004F054FA1037BD4680BD00BFE48D00009E
:10195000488E0000588E000080B584B000AF7860DB
:1019600039607B68032B02DCFFF7CAFE59E03B6855
:1019700008331B68184601F01BFA0346002B13D1ED
:101980003B6808331B681846FFF760FEF860FB6889
:10199000002B10DA3B6808331B681946224804F014
:1019A00025FAFFF7ADFE3CE03B6808331B6818469C
:1019B00006F0C2FAF8603B680C331B6819461B48F6
:1019C00003F0F4FC0346002B09D03B680C331B6882
:1019D0001946174803F0EAFC0346002B02D1012305
:1019E000FB7219E03B680C331B681946114803F081
:1019F000DDFC0346002B09D03B680C331B681946FD
:101A00000D4803F0D3FC0346002B02D10023FB72E8
:101A100002E0FFF775FE04E0FB7A1946F868FFF76D
:101A2000A7FD1037BD4680BDE48D0000688E000024
:101A3000708E0000748E0000788E000080B582B039
:101A400000AF786039607B68022B02DCFFF758FE3C
:101A50003EE03B6804331B6819461F4803F0A6FCB0
:101A60000346002B04D139687868FFF775FE2FE034
:101A70003B6804331B681946184803F097FC03467B
:101A8000002B04D139687868FFF794FE20E03B68AA
:101A900004331B681946124803F088FC0346002BE8
:101AA00004D139687868FFF70DFF11E03B68043313
:101AB0001B6819460B4803F079FC0346002B04D140
:101AC00039687868FFF748FF02E0FFF719FE00BFAA
:101AD0000837BD4680BD00BF7C8E0000808E0000B0
:101AE000888E0000908E000080B483B000AF7860D4
:101AF0007B681A687B689A420CBF01230023DBB223
:101B000018460C37BD465DF8047B704780B485B03D
:101B100000AF78600023FB607B68BB6005E0BB68BA
:101B20001B68BB60FB680133FB60BB681A687B689D
:101B30009A42F4D1FB6818461437BD465DF8047B21
:101B4000704700BF80B500AF024804F04FF9002392
:101B5000184680BDE08E000080B500AF03F062FC47
:101B60000023184680BD00BF80B582B000AF78600A
:101B700002E0064804F03AF97B685A1E7A60002BAE
:101B8000F7D100BF0837BD4680BD00BFE88E00001A
:101B900080B586B000AFF8607A603B600B46FB72A0
:101BA000FB7A184604F0D2FC78617B6904333B6110
:101BB000FB683A691A60FB68FA7A1A72FB687A68FD
:101BC0005A60FB683A68DA60FB6800221A6100BF5D
:101BD0001837BD4680BD00BF80B58AB000AF7860C1
:101BE000396000237B623B6800221A613B68DB6836
:101BF000002B03D03B681B7A002B01D1002347E068
:101C00003B681B687B617B68002B04D17B693B626E
:101C100001237B6201E07B683B6201F073FE386167
:101C20007B6A002B0FD13B6A0C3BFB60FB681B7A85
:101C300023F080033A68127A934204D0386901F0A5
:101C400065FE002324E00023BB613B685B68FB6109
:101C50003B6A1B683B623A6A7B699A4202D1002365
:101C60003B620EE0BB690133BB61FB691A1DFA617F
:101C70003A6A1A603B68DA68BB699A4200D0E7E7C3
:101C800000BF386901F042FE3B68BA691A613B6ADD
:101C900018462837BD4680BD2DE9F041BCB002AFE3
:101CA0000023C7F8E430784BC7F8D83007F190022A
:101CB00007F1B00008230121FFF76AFF0823C7F8E6
:101CC000D430D7F8D830D7F8D420D7F8D4106F480C
:101CD00004F08CF8D7F8D400FFF746FF6C4804F006
:101CE00085F807F1B0031946D7F8E400FFF774FF51
:101CF000C7F8E4000023C7F8E030B3E0D7F8E030DD
:101D00009B0007F1E802134453F8583C0C3BC7F81A
:101D1000D03001F0F7FDC7F8CC00D7F8D0301B7AEF
:101D200023F0800397F8B820934204D0D7F8CC0072
:101D300001F0ECFD91E03B1D8C22D7F8D010184645
:101D400003F028FAD7F8CC0001F0E0FDD7F8D03046
:101D5000C7F8C830D7F8C820D7F8C83093F835305E
:101D6000009313460822D7F8D4104A4804F03EF8EE
:101D7000D7F8C83093F8343003F0070387F8C7303A
:101D800097F8C730022B03D1434804F02FF820E026
:101D900097F8C73003F00403002B03D03F4804F04A
:101DA00025F816E097F8C730002B03D13C4804F023
:101DB0001DF80EE097F8C730012B03D1394804F025
:101DC00015F806E097F8C730032B02D1364804F027
:101DD0000DF8D7F8C8309B6AC7F8DC3004E0D7F8B4
:101DE000DC300133C7F8DC30D7F8DC301B78232B2C
:101DF000F5D0D7F8C830DA6AD7F8C8309B6A1946E8
:101E0000D7F8C830DB69CB1AD518D7F8C830DE6AE6
:101E1000D7F8C830DA6AD7F8C8309B6A1946D7F8BD
:101E2000DC30CB1A1344642202FB03F2D7F8C8302B
:101E3000DB6AB2FBF3F8D7F8C8305C6DD7F8C8306E
:101E40001B6B184603F004F90346019300944346C4
:101E500032462946154803F0C9FFD7F8E030013370
:101E6000C7F8E030D7F8C020D7F8E0309A423FF703
:101E700045AFD7F8E430002B7FF433AF002318468A
:101E8000E837BD46BDE8F081EC8E0000F48E00001E
:101E90003C8F00007C8F0000888F0000948F000032
:101EA000A08F0000AC8F0000B88F0000C48F00002E
:101EB00080B584B000AF78607B681B68FB6013E07E
:101EC000FB68143BBB60BB681A4608210A4803F054
:101ED0008DFFFB681A687B689A4202D0074803F0BE
:101EE00085FFFB681B68FB60FA687B689A42E7D154
:101EF00000BF1037BD4680BDEC8F0000F48F00009E
:101F0000B0B596B002AF0023FB64414B7B643A4608
:101F100007F1200008230221FFF73AFE08233B6463
:101F20007B6C3A6C396C3B4803F060FF386CFFF710
:101F30001BFE394803F05AFF07F120031946F86CDD
:101F4000FFF74AFEF8640023BB6454E0BB6C9B00BF
:101F500007F15002134453F8503C0C3BFB6301F073
:101F6000D1FCB863FB6B1B7A23F0800397F8282021
:101F7000934203D0B86B01F0C9FC39E0B86B01F0B3
:101F8000C5FCFB6B7B637B6B14331846FFF7ACFD22
:101F90000346002B1AD17C6B7B6B9B8B1D467B6BA6
:101FA00014331846FFF7B2FD03460193009523460C
:101FB0000822396C194803F019FF7B6B143318465B
:101FC000FFF776FF164803F011FF11E07C6B7B6B87
:101FD0009B8B1D467B6B14331846FFF797FD03461A
:101FE0000193009523460822396C0E4803F0FEFE4B
:101FF000BB6C0133BB643A6BBB6C9A42A6DCFB6CD6
:10200000002B99D1002318465037BD46B0BD00BF04
:10201000F88F00000490000020900000389000002D
:10202000489000004C900000B0B596B002AF00237D
:10203000FB643C4B7B643A4607F1200008230421F3
:10204000FFF7A6FD08233B647B6C3A6C396C36487D
:1020500003F0CCFE386CFFF787FD344803F0C6FE72
:1020600007F120031946F86CFFF7B6FDF86400236A
:10207000BB644BE0BB6C9B0007F15002134453F868
:10208000503C0C3BFB6301F03DFCB863FB6B1B7ADF
:1020900023F0800397F82820934203D0B86B01F017
:1020A00035FC30E0B86B01F031FCFB6B7B637B6B84
:1020B00014331846FFF718FD0346002B19D17D6B2A
:1020C0007B6BDC697B6B14331846FFF71FFD0346FF
:1020D000019300942B460822396C154803F086FEC4
:1020E0007B6B14331846FFF7E3FE124803F07EFEC5
:1020F00009E07A6B7B6BDB69009313460822396C2D
:102100000D4803F073FEBB6C0133BB643A6BBB6CD0
:102110009A42AFDCFB6C002BA2D10023184650374B
:10212000BD46B0BD5C900000649000008890000047
:10213000A890000048900000C0900000F0B59DB04D
:1021400006AF00237B654C4BFB6407F1080207F1E7
:10215000280008230321FFF71BFD0823BB64FB6C49
:10216000BA6CB96C454803F041FEB86CFFF7FCFC53
:10217000434803F03BFE07F128031946786DFFF74B
:102180002BFD786500233B656AE03B6D9B0007F102
:102190005802134453F8503C0C3B7B6401F0B2FBF3
:1021A00038647B6C1B7A23F0800397F830209342CD
:1021B00003D0386C01F0AAFB4FE0386C01F0A6FBAD
:1021C0007B6CFB63FB6B14331846FFF78DFC0346F7
:1021D000002B25D1FC6BFB6B1B6A1D46FB6B9B7FA9
:1021E0001E46FB6B5B7F7B60FB6B14331846FFF76F
:1021F0008DFC034604937B680393029601950823A4
:10220000009323460822B96C1E4803F0EFFDFB6BD8
:1022100014331846FFF74CFE1B4803F0E7FD1CE0A3
:10222000FC6BFB6B1B6A1D46FB6B9B7F1E46FB6BAF
:102230005B7F7B60FB6B14331846FFF767FC03463C
:1022400004937B6803930296019508230093234629
:102250000822B96C0D4803F0C9FD3B6D01333B65A5
:10226000BA6B3B6D9A4290DC7B6D002B83D10023CF
:1022700018465C37BD46F0BDD4900000DC900000ED
:102280000C9100003491000048900000549100002F
:10229000F0B599B004AF0023FB64454B7B643A462C
:1022A00007F1200008230521FFF772FC08233B6497
:1022B0007B6C3A6C396C3F4803F098FD386CFFF743
:1022C00053FC3D4803F092FD07F120031946F86CDA
:1022D000FFF782FCF8640023BB645CE0BB6C9B00EE
:1022E00007F15002134453F8503C0C3BFB6301F0E0
:1022F00009FBB863FB6B1B7A23F0800397F8282057
:10230000934203D0B86B01F001FB41E0B86B01F0E0
:10231000FDFAFB6B7B637B6B14331846FFF7E4FB22
:102320000346002B1ED17C6B7B6B5B8C1D467B6B4D
:102330001B8C1E467B6B14331846FFF7E7FB0346E6
:1023400002930196009523460822396C1B4803F03E
:102350004DFD7B6B14331846FFF7AAFD184803F0B8
:1023600045FD15E07C6B7B6B5B8C1D467B6B1B8C92
:102370001E467B6B14331846FFF7C8FB03460293D7
:102380000196009523460822396C0E4803F02EFD75
:10239000BB6C0133BB643A6BBB6C9A429EDCFB6C3A
:1023A000002B91D1002318465437BD46F0BD00BF25
:1023B000749100007C910000A0910000BC9100008D
:1023C00048900000D4910000B0B596B002AF002351
:1023D000FB64414B7B643A4607F120000823062149
:1023E000FFF7D6FB08233B647B6C3A6C396C3B48A7
:1023F00003F0FCFC386CFFF7B7FB394803F0F6FC40
:1024000007F120031946F86CFFF7E6FBF864002398
:10241000BB6454E0BB6C9B0007F15002134453F8BB
:10242000503C0C3BFB6301F06DFAB863FB6B1B7A0D
:1024300023F0800397F82820934203D0B86B01F073
:1024400065FA39E0B86B01F061FAFB6B7B637B6B7B
:1024500014331846FFF748FB0346002B1AD17C6B58
:102460007B6B9B8C1D467B6B14331846FFF74EFB32
:1024700003460193009523460822396C194803F05E
:10248000B5FC7B6B14331846FFF712FD164803F0BA
:10249000ADFC11E07C6B7B6B9B8C1D467B6B14331E
:1024A0001846FFF733FB03460193009523460822A5
:1024B000396C0E4803F09AFCBB6C0133BB643A6B79
:1024C000BB6C9A42A6DCFB6C002B99D1002318460A
:1024D0005037BD46B0BD00BFEC910000F891000040
:1024E00018920000309200004890000044920000D2
:1024F00080B596B002AF0023FB643D4B7B643A4647
:1025000007F1200008230A21FFF742FB08233B6460
:102510007B6C3A6C396C374803F068FC386CFFF719
:1025200023FB354803F062FC07F120031946F86CE1
:10253000FFF752FBF8640023BB6446E0BB6C9B00D2
:1025400007F15002134453F8503C0C3BFB6301F07D
:10255000D9F9B863FB6B1B7A23F0800397F8282026
:10256000934203D0B86B01F0D1F92BE0B86B01F0C6
:10257000CDF9FB6B7B63796B7B6B5B6A7A6B926AE1
:10258000019200930B460822396C1C4803F02EFC84
:102590007B6B5B7A03F00103002B03D0184803F038
:1025A00025FC02E0174803F021FC7B6B5B7A03F00B
:1025B0000203002B03D0144803F018FC02E0134878
:1025C00003F014FCBB6C0133BB643A6BBB6C9A42E6
:1025D000B4DCFB6C002BA7D101F0B4FC0346194618
:1025E0000B4803F003FC002318465037BD4680BD5E
:1025F000589200006092000094920000C492000083
:10260000DC920000EC920000FC92000008930000B5
:102610001493000080B598B002AF00237B65374B60
:10262000BB643A1D07F1240008230921FFF7B0FA23
:1026300008237B64BB6C7A6C796C314803F0D6FB61
:10264000786CFFF791FA2F4803F0D0FB07F12403D1
:102650001946786DFFF7C0FA78650023FB6440E007
:10266000FB6C9B0007F15802134453F8543C0C3B9D
:102670003B6401F047F9F8633B6C1B7A23F080035D
:1026800097F82C20934203D0F86B01F03FF925E036
:10269000F86B01F03BF93B6CBB631B4B3B65BB6BC1
:1026A0001B7D1E2B0ED8BB6B1B7D1A46174B53F898
:1026B0002230002B06D0BB6B1B7D1A46134B53F800
:1026C00022303B65BA6BBB6B9B7E01933B6D0093E5
:1026D00013460822796C0E4803F088FBFB6C01332B
:1026E000FB647A6BFB6C9A42BADC7B6D002BADD13C
:1026F000002318465837BD4680BD00BFD094000067
:10270000D89400000095000024950000BC960000BD
:102710002C95000080B582B000AF786039607B688E
:10272000022B69D13B6804331B684949184605F000
:102730006BFD0346002B02D1FFF7AEFA59E03B6870
:1027400004331B684349184605F05EFD0346002B21
:1027500002D1FFF7CDFE4CE03B6804331B683E49D5
:10276000184605F051FD0346002B02D1FFF7C8FBC8
:102770003FE03B6804331B683849184605F044FDC8
:102780000346002B02D1FFF74FFC32E03B680433D5
:102790001B683349184605F037FD0346002B02D16C
:1027A000FFF7CCFC25E03B6804331B682D49184635
:1027B00005F02AFD0346002B02D1FFF769FD18E062
:1027C0003B6804331B682849184605F01DFD034685
:1027D000002B02D1FFF7F8FD0BE03B6804331B68C8
:1027E0002249184605F010FD0346002B03D1FFF7E0
:1027F00011FF002327E000BF1D4803F0F7FA1D4832
:1028000003F0F4FA12491C4803F0F0FA11491B488E
:1028100003F0ECFA10491A4803F0E8FA1049194895
:1028200003F0E4FA0D49184803F0E0FA0D4917489F
:1028300003F0DCFA0C49164803F0D8FA0B491548A6
:1028400003F0D4FA002318460837BD4680BD00BF08
:10285000EC8E000058920000409500005C90000053
:10286000D490000074910000EC910000D09400001E
:10287000449500005C950000689500008495000078
:10288000A0950000C0950000DC950000F8950000C0
:10289000149600003896000080B584B000AF7860D0
:1028A00039600F4803F0A2FA0E4B1B68FB600AE088
:1028B000FB681968FB685B681A460B4803F096FAD8
:1028C000FB680C33FB60094B1B68FA689A42EFD334
:1028D000074803F08BFA002318461037BD4680BD29
:1028E000389700000007FE1F549700000407FE1FE2
:1028F0006097000080B582B000AF78603960FFF764
:10290000CBF9002318460837BD4680BD80B586B098
:1029100000AF7860396000237B6100233B610023B6
:10292000FB6007F10C0207F1100107F114031846D0
:1029300003F04AFB7B6919460C4803F057FA3B69E0
:1029400019460B4803F052FAFB681946094803F090
:102950004DFA7A693B69D31A1946074803F046FADB
:10296000002318461837BD4680BD00BF649700009D
:1029700074970000849700009497000080B588B099
:1029800000AFF860B9607A60FB68FB610023BB614F
:1029900000237B6194E0FB6900221A70FB6901331C
:1029A000FB61BB690133BB61FB691B78202B03D042
:1029B000FB691B78092B03D1BA69BB689A42EAD339
:1029C0007B69092B19D9464803F010FA00233B61B3
:1029D0000BE03B699B007A6813441B681946414829
:1029E00003F004FA3B6901333B613A697B699A421F
:1029F000EFD33D4803F0FAF96DE0BA69BB689A423B
:102A000064D2FB691B78222B3AD1FB690133FB614D
:102A1000BB690133BB617B699B007A681344FA6927
:102A20001A607B6901337B6114E0FB691B785C2BC6
:102A30000AD1FB6901331B78222B05D1FB690133D5
:102A4000FB61BB690133BB61FB690133FB61BB699E
:102A50000133BB61FB691B78222B03D0BA69BB68C9
:102A60009A42E2D3BA69BB689A4231D2FB6900222A
:102A70001A70FB690133FB61BB690133BB611FE065
:102A80007B699B007A681344FA691A607B69013399
:102A90007B6105E0FB690133FB61BB690133BB610D
:102AA000FB691B78202B07D0FB691B78092B03D00F
:102AB000BA69BB689A42EDD3BA69BB689A4209D237
:102AC000BA69BB689A42FFF46FAF04E000BF02E04E
:102AD00000BF00E000BF7B6918462037BD4680BDBF
:102AE000A4970000C49700006097000080B584B0F0
:102AF00000AF786039600023BB60134B1B68FB603C
:102B000017E0FB681B683A687968184605F094FD81
:102B10000346002B0AD1FB681A683B6813441B78F4
:102B2000002B03D1FB689B68BB6007E0FB680C339C
:102B3000FB60064B1B68FA689A42E2D3BB681846F2
:102B40001037BD4680BD00BF0007FE1F0407FE1FF3
:102B500080B592B000AFF860B9607A6000237B6402
:102B6000FB68002B05D140F211122B492B4803F0D2
:102B700041FA7B68002B09D14FF489722649284815
:102B800003F038FA02E07B6C01337B64FA687B6CFB
:102B900013441B78202B09D0FA687B6C13441B78F4
:102BA000092B03D07A6CBB689A42ECD37B6C002B68
:102BB00002D14FF0FF332AE07B6C1946F868FFF72B
:102BC00095FF38643B6C002B02D14FF0FF331EE0C1
:102BD00007F1140328220021184602F077FA07F1C2
:102BE00014031A46B968F868FFF7C8FEF863FB6B70
:102BF000002B02D14FF0FF3309E007F114023B6CC8
:102C00001146F86B984702467B681A600023184605
:102C10004837BD4680BD00BF60980000C8970000DF
:102C2000CC97000080B584B000AF7860396005E0D3
:102C30007B6801337B603B68013B3B603B68002B5A
:102C400007D07B681B78202BF2D07B681B78092B80
:102C5000EED03B68002B01D1002322E007F10803EE
:102C60001A4639687868FFF773FF0346002B01D1D5
:102C7000BB6816E07B68FB6002E0FB680133FB6029
:102C8000FB681B78202B03D0FB681B78002BF4D14A
:102C9000FB6800221A707968044803F0A7F84FF027
:102CA000FF3318461037BD4680BD00BFD4970000E3
:102CB00080B485B000AF786039607B68FB6005E068
:102CC000FB680133FB603B6801333B60FB681B78AA
:102CD000002B09D03B681B78002B05D0FB681A78C5
:102CE0003B681B789A42EBD0FA687B68D31A184687
:102CF0001437BD465DF8047B704700BF80B588B0CF
:102D000000AF78600023FB610023BB617B681B7808
:102D1000002B04D100210020FFF7BEFD3EE0214B37
:102D20001B687B612AE07B691B683B61786805F062
:102D3000E7FB03461A463969786805F07DFC0346CF
:102D4000002B18D1FB69002B06D13B69BB61B86928
:102D500005F0D6FB0346FB613969B869FFF7A8FFA8
:102D6000F860FA68FB699A4201DAFB68FB6139692D
:102D70000D4803F03BF87B690C337B610B4B1B6800
:102D80007A699A42CFD3BB69002B06D0FB691A46F9
:102D9000B969786802F0AEFA00BF00BF2037BD46BF
:102DA00080BD00BF0007FE1FEC9700000407FE1F58
:102DB00080B582B000AF78607B68002B03D07B6861
:102DC0001B78002B01D1002321E07B681B782B2B83
:102DD00003D07B681B782D2B14D17B6801337B607B
:102DE00010E005F0BDF802467B681B780133134400
:102DF0001B7803F00403002B01D1002307E07B685C
:102E000001337B607B681B78002BEAD101231846D5
:102E10000837BD4680BD00BF80B500AF174B1B68AB
:102E200093F8213003F00203DBB2002B04D1144BE2
:102E300000221A70124B1FE0124B1B68002B07D0A8
:102E4000104B1B68802219460D4805F045FC06E032
:102E50000B4B0D4A92E803001860043319700848C0
:102E600005F04EFB03461A46054B134407491A4624
:102E70000B461B881380024B184680BD0C0BFE1FAF
:102E80000C07FE1F0807FE1F7098000078980000CE
:102E900080B582B000AF78600C4B1B68002B04D16A
:102EA00090220B490B4803F0A5F8084B1A687B6881
:102EB000DBB203F00103D9B292F8213061F3410390
:102EC00082F8213000BF0837BD4680BD0C0BFE1FC5
:102ED000049900007C98000080B582B000AF002308
:102EE000FB701E4B1B68002B04D1A4221C491D48FB
:102EF00003F080F8194B1B68D3F80C327B607B68B9
:102F0000002B1BD14FF0FF3323E0144B1B684FF015
:102F1000FF31184601F088FC104B1B68D3F80C22D7
:102F20007B689A420AD00D4B1B68D3F80C327B6049
:102F30007B68002B02D14FF0FF330AE0FA1C01231B
:102F40004FF0FF31786801F08BF90346012BDCD19B
:102F5000FB7818460837BD4680BD00BF0C0BFE1F2E
:102F60001C9900007C98000080B582B000AF7860AA
:102F70003960094B1B68002B04D1C322074908485C
:102F800003F038F8044B1B68184601F05DFC002381
:102F900018460837BD4680BD0C0BFE1F2C9900005B
:102FA0007C98000080B584B000AF78600023FB609F
:102FB0002D4B1B68002B04D1D6222C492C4803F042
:102FC00019F8786801F064F8F860FB68002B04D108
:102FD0007968284802F00AFF42E0234B1B68D3F8C7
:102FE0000C22FB689A423AD040F24311F86801F093
:102FF0005DF80346002B33D11B4B1B68D3F80C3212
:10300000002B0ED0184B1B68D3F80C32184601F079
:10301000D9F8154B1B68D3F80C320021184601F083
:10302000A7F9114B1B6803F5DB73512200211846E9
:1030300002F04CF80C4B1A680B4B1B680021A3F8EC
:103040000812B3F80832A2F80A32074B1B68FA6874
:10305000C3F80C220849F86801F08AF900E000BFC3
:103060001037BD4680BD00BF0C0BFE1F3C99000011
:103070007C98000090980000692F000080B582B015
:1030800000AF7860084802F0B1FE7868FFF736FEBE
:10309000FFF7C2FE03467A681946044802F0A6FE0E
:1030A00000BF0837BD4680BDB0980000B49800004E
:1030B00080B582B000AF7860084802F097FEFFF755
:1030C000ABFE01467B6803F5DB731A46044802F049
:1030D0008DFE002318460837BD4680BDBC98000011
:1030E000B498000080B584B000AF78607B68B3F816
:1030F0000832002B00F09D807B689B8C042B51D9FB
:103100007B6803F5B3707B6803F5DB7350221946C7
:1031100004F04EFF0346002B00F08B800023FB6081
:1031200019E0FA6813469B0013441B0120337A68A8
:103130001344981DFB685A1C13469B0013441B0143
:1031400020337A68134406335022194602F022F8DD
:10315000FB680133FB60FB68032BE2DDFA68134672
:103160009B0013441B0120337A681344063350221A
:103170000021184601F0AAFFFA6813469B00134489
:103180001B0120337A681344981D7B6803F5DB71BB
:103190007B68B3F808321A4601F0FCFF7B68052211
:1031A0009A8446E07B689B8C002B14D07B689B8CB8
:1031B0005A1E13469B0013441B0120337A681344A4
:1031C000981D7B6803F5DB735022194604F0F0FE6E
:1031D0000346002B2DD07B689A8C7B685A847B68D1
:1031E0009B8C1A4613469B0013441B0120337A68BC
:1031F0001344063350220021184601F067FF7B6814
:103200009B8C1A4613469B0013441B0120337A689B
:103210001344981D7B6803F5DB717B68B3F80832B3
:103220001A4601F0B7FF7B689B8C01339AB27B682A
:103230009A847B689A8C7B685A8400BF1037BD469D
:1032400080BD00BFB0B588B000AF7860A84B1A68E9
:1032500092F8213043F0010382F82130A44B1B681F
:10326000D3F80C32002B09D102F0AAFD38613B697A
:10327000002B03D03B691846FFF794FEFFF7CCFD07
:103280000346184602F0B2FDFFF726FEF860FB6821
:10329000002BC0F2AE82FB681B2B05D1944B1B6840
:1032A000012283F82020AFE2914B1B6893F8203075
:1032B000012B0ED1FB685B2B05D18D4B1B680222C5
:1032C00083F82020A0E28A4B1B68002283F820208C
:1032D000D6E0874B1B6893F82030022B40F0D0805B
:1032E000834B1B68002283F82020FB68412B3DD1D3
:1032F0007F4B1B685B8C002B33D07D4B1B685A8C3B
:10330000013A92B25A847A4B1B6803F5DB70784B12
:103310001A68774B1B685B8C19460B469B000B4465
:103320001B012033134406335022194601F032FFAB
:103330006F4B1D686E4B1C686D4B1B6803F5DB7390
:10334000184605F0DDF803469BB2A4F80832B4F83D
:103350000832A5F80A32664B1B681846FFF7A8FE2C
:1033600052E2634B1B6800225A844DE2FB68422BF9
:103370004CD15F4B1B685B8C1A465D4B1B689B8C6A
:10338000013B9A4206DA5A4B1B685A8C013292B2C0
:103390005A840DE0564B1B689B8C002B00F02B824F
:1033A000534B1B68524A1268928C013A92B25A846B
:1033B0004F4B1B6803F5DB704D4B1A684C4B1B6879
:1033C0005B8C19460B469B000B441B0120331344B6
:1033D00006335022194601F0DDFE454B1D68444B73
:1033E0001C68434B1B6803F5DB73184605F088F82F
:1033F00003469BB2A4F80832B4F80832A5F80A32A2
:103400003B4B1B681846FFF753FEFDE1FB68442B5E
:1034100012D1374B1B68B3F80A32002B00F0ED8154
:10342000344802F0E3FC324B1B68B3F80A22013A3D
:1034300092B2A3F80A22E0E1FB68432B20D12C4B87
:103440001B68B3F80A222A4B1B68B3F808329A4269
:1034500080F0D581264B1B68254A1268B2F80A22F3
:10346000134493F8B6311946234802F0BFFC204BB1
:103470001B68B3F80A22013292B2A3F80A22BEE115
:10348000FB68002B00F0BD81FB68FF2B00F0B981C9
:10349000FB68092B32D10023FB6105E0154802F0DF
:1034A000A5FCFB690133FB61114B1B68B3F80A32C1
:1034B0001A46FB699A42F1DC0D4B1B6803F5DB737E
:1034C0001846FFF7DBFD0A4B1D68094B1C68084BCB
:1034D0001B6803F5DB73184605F012F803469BB230
:1034E000A4F80832B4F80832A5F80A328CE100BF1B
:1034F0000C0BFE1FC4980000C8980000FB687F2BCF
:1035000002D0FB68082B7DD1954B1B68B3F80A32BB
:10351000002B00F07881924B1B68B3F80822013A27
:1035200092B2A3F808228E4B1B68B3F80A22013A24
:1035300092B2A3F80A228A4B1B68B3F80822884B80
:103540001B68B3F80A329A424ED9854B1A68844BED
:103550001B68B3F80A3203F5D8731344981D804BE7
:103560001A687F4B1B68B3F80A32013303F5D8732E
:103570001344991D7A4B1B68B3F808321A46784BEE
:103580001B68B3F80A32D31A1A4601F071FE744B65
:103590001B68734A1268B2F808221344002283F8A9
:1035A000B6216F4B1A686E4B1B68B3F80A3203F5ED
:1035B000D8731344063319466A4802F017FC684B67
:1035C0001B68B3F80A32BB6105E0674802F00EFCE5
:1035D000BB690133BB61624B1B68B3F808321A4602
:1035E000BB699A42F1DA0FE1604802F0FFFB5C4BE5
:1035F0001B685B4A1268B2F808221344002283F861
:10360000B62101E1FB680D2B02D0FB680A2B37D1F4
:10361000534B1B681846FFF765FD514B1B6893F829
:10362000213003F00103DBB2002B02D0504802F03E
:10363000DDFB4B4B1B6803F5DB72494B1B68B3F892
:10364000083219461046FFF7EDFAFFF7E5FB03468F
:10365000184602F0CBFB424B1B6803F5DB7351228B
:103660000021184601F032FD3D4B1A683C4B1B68A7
:103670000021A3F80812B3F80832A2F80A32C3E016
:10368000374B1B68B3F808324F2B04D9344B1B68F7
:103690000022A3F80822324B1B68B3F80A22304BF1
:1036A0001B68B3F808329A4266D22D4B1A682C4B2D
:1036B0001B68B3F80A32013303F5D8731344981D1D
:1036C000274B1A68264B1B68B3F80A3203F5D873E8
:1036D0001344991D224B1B68B3F808321A46204B3D
:1036E0001B68B3F80A32D31A1A4601F0C1FD1C4B0D
:1036F0001B681B4A1268B2F80A221146FA68D2B255
:103700000B4483F8B621164B1B6893F8213003F065
:103710000103DBB2002B0DD0114B1A68104B1B6854
:10372000B3F80A3203F5D873134406331946114827
:1037300002F05CFB0A4B1B68B3F80A327B6105E0C0
:10374000094802F053FB7B6901337B61044B1B6822
:10375000B3F808321A467B699A42F1DC25E000BFD3
:103760000C0BFE1FCC980000C4980000D4980000F9
:10377000B0980000D8980000244B1B68234A1268B8
:10378000B2F808221146FA68D2B20B4483F8B62187
:103790001E4B1B6893F8213003F00103DBB2002BB2
:1037A00003D0F9681A4802F021FB0023FB60174B95
:1037B0001B68B3F80822013292B2A3F80822134B17
:1037C0001B68B3F80A22013292B2A3F80A220F4B07
:1037D0001B68B3F808324F2B7FF656AD0B4B1B68B6
:1037E0000022A3F80822094B1B680022A3F80A2232
:1037F0004AE500BF48E500BF46E500BF44E500BF1D
:1038000042E500BF40E500BF3EE500BF0C0BFE1FD8
:10381000C898000080B483B000AF78603960064A71
:103820007B681360054A3B68136000BF0C37BD46D8
:103830005DF8047B704700BF0007FE1F0407FE1FF2
:1038400080B584B002AF00237B601D491D48FFF79F
:10385000E1FF4FF40471012002F078FB02461A4B9D
:103860001A60194B1B68002B05D1184802F0BEFAEC
:103870004FF0FF3320E00A230193142300934FF409
:10388000805300221249134803F0C6FC38600E4BE7
:103890001B681846002300220F4900F0ADFE0120EE
:1038A000FFF7F6FA3B68002B05D07B68002B02D1AE
:1038B000386803F0F9FB002318460837BD4680BD81
:1038C000748A0000148A00000C0BFE1FDC980000B4
:1038D00045320000F4980000FC98000080B584B0E8
:1038E00000AF78603960386802F00CFBF860FB6864
:1038F000002B02D17B680C221A60FB681846103737
:10390000BD4680BDEFF3108072B6704780F310881B
:103910007047464A1368012B04D04FF0010313602F
:10392000434A1060434A116043484FF080510160A0
:103930007047EFF3108272B63C48016851B34FF004
:10394000000101603A48016891B1EFF309811EF06E
:10395000100F08BF21ED108B21E9F00F4FF000048C
:103960001EF0100F08BF012441F8044D00680160EB
:1039700030490968096808C9B1E8F00F002B18BF81
:10398000B1EC108B81F309884EF0100E002B18BF9C
:103990002EF0100E82F310884EF0040E7047254969
:1039A0000860EFF3148222F0040282F314882049A5
:1039B0004FF0000008601D494FF0010008601F48EB
:1039C0001F49D0F8002041EA020101601A484FF077
:1039D000805101601B480068006800BF80F30888C0
:1039E00061B662B6BFF34F8FBFF36F8F704700BFF2
:1039F000EFF308801EF0040F01D0EFF3098020E9F7
:103A0000F00F40F804ED40F804ED1EF0040F02D072
:103A100080F3098801E080F3088800B500F0BAF966
:103A20005DF804EB4EF0040E70470000180BFE1F0B
:103A3000140BFE1F100BFE1F04ED00E020ED00E054
:103A40000000FFFF08ED00E080B489B000AFF8602F
:103A5000B9607A603B607B680433BB61BB6923F06B
:103A60000703BB61BB69443BBB61BB697B6100234E
:103A7000FB6108E0FB699B007A691344154A1A60F0
:103A8000FB690133FB61FB69102BF3D9BA687B69D1
:103A90005A627B6900229A627B690022DA627B6942
:103AA00000221A637B6900225A633A687B699A6331
:103AB000FA687B69DA637B694FF080721A647B690C
:103AC00000221A60BB6918462437BD465DF8047BA6
:103AD000704700BFEFBEADDE80B500AF254802F0F5
:103AE00085F9254B1B889BB21946244802F07EF9C4
:103AF000214B1B889BB203F00103002B02D020480E
:103B000002F074F91C4B1B889BB203F00203002BDC
:103B100002D01C4802F06AF9174B1B889BB203F0D5
:103B20000403002B02D0184802F060F9124B1B88E6
:103B30009BB203F00803002B02D0144802F056F9A0
:103B40000D4B1B889BB203F48073002B02D01048EE
:103B500002F04CF9084B1B889BB203F40073002B56
:103B600002D00C4802F042F90B4802F03FF900BFC6
:103B700080BD00BF509900002AED00E06099000070
:103B800078990000849900009099000098990000AD
:103B9000A0990000AC990000B899000080B500AF72
:103BA000264802F023F9264B1B78DBB2194625483C
:103BB00002F01CF9224B1B78DBB203F00103002B4F
:103BC00002D0214802F012F91D4B1B78DBB203F042
:103BD0000203002B02D01D4802F008F9184B1B7895
:103BE000DBB203F00403002B02D0194802F0FEF808
:103BF000134B1B78DBB203F00803002B02D01548EF
:103C000002F0F4F80E4B1B78DBB203F01003002B2C
:103C100002D0114802F0EAF8094B1B78DBB25BB224
:103C2000002B06DA0D4B1B6819460D4802F0DEF832
:103C300002E00C4802F0DAF800BF80BDBC99000039
:103C400029ED00E0C8990000E0990000EC9900001F
:103C5000F8990000089A0000149A000038ED00E07E
:103C60001C9A0000B899000080B500AF214802F00E
:103C7000BDF8214B1B78DBB21946204802F0B6F89C
:103C80001D4B1B78DBB203F00103002B02D01C4854
:103C900002F0ACF8184B1B78DBB203F00203002BE8
:103CA00002D0184802F0A2F8134B1B78DBB203F0E5
:103CB0000803002B02D0144802F098F80E4B1B7832
:103CC000DBB203F01003002B02D0104802F08EF894
:103CD000094B1B78DBB25BB2002B06DA0C4B1B687E
:103CE00019460C4802F082F802E00B4802F07EF818
:103CF00000BF80BD2C9A000028ED00E0409A000033
:103D0000589A0000649A0000709A00007C9A0000A3
:103D100034ED00E0889A0000B899000080B500AF4B
:103D2000164B1B6803F00203002B02D0144802F06C
:103D30005DF8124B1B6803F08043002B14D0114B2D
:103D40001B78DBB2002B01D0FFF728FF0E4B1B784E
:103D5000DBB2002B01D0FFF787FF0C4B1B889BB217
:103D6000002B01D0FFF7B8FE044B1B68002B02DAD2
:103D7000074802F03BF800BF80BD00BF2CED00E01B
:103D8000989A000029ED00E028ED00E02AED00E01F
:103D9000B09A000080B586B000AF78607B682833A9
:103DA0007B617B6804333B61474B1B68002B07D06A
:103DB000454B1B6878699847F860FB68002B7ED0FC
:103DC0003B691B6C1946414802F010F83B695B6A7D
:103DD00019463F4802F00AF83B699B6A19463D487C
:103DE00002F004F83B69DB6A19463B4801F0FEFF2C
:103DF0003B691B6B1946394801F0F8FF3B695B686A
:103E00001946374801F0F2FF3B699B68194635486F
:103E100001F0ECFF3B69DB681946334801F0E6FF2F
:103E20003B691B691946314801F0E0FF3B695B695A
:103E300019462F4801F0DAFF3B699B6919462D4866
:103E400001F0D4FF3B69DB6919462B4801F0CEFF36
:103E50003B691B6A1946294801F0C8FF3B695B6B47
:103E60001946274801F0C2FF3B699B6B194625485C
:103E700001F0BCFF3B69DB6B1946234801F0B6FF3C
:103E80007B681B6803F00403002B09D003F000F9E2
:103E9000034619461D4801F0A9FFFDF7FDFE02E0AB
:103EA0001B4801F0A3FF7B681B6803F01003002B85
:103EB00002D1184801F09AFFFFF730FFFEE700BF7C
:103EC0001837BD4680BD00BF9007FE1FC09A000096
:103ED000D09A0000E09A0000F09A0000009B0000D9
:103EE000109B0000209B0000309B0000409B0000C6
:103EF000509B0000609B0000709B0000809B0000B6
:103F0000909B0000A09B0000B09B0000C09B0000A5
:103F1000E09B0000FC9B000080B483B000AF7860A1
:103F20007B6893FAA3F3B3FA83F37A68002A01D18A
:103F30004FF0FF33013318460C37BD465DF8047B64
:103F4000704700BF80B400AF034B1B681846BD46E6
:103F50005DF8047B704700BF9407FE1F80B582B0F8
:103F600000AF1B4B1B68002B02D0194B1B689847F6
:103F7000FFF7C8FC7860174B1B680133154A1360C4
:103F800003F086F838603B685B6D5A1E3B685A65E3
:103F90003B685B6D002B12D13B681A6D3B685A651C
:103FA0003B6893F8343043F00803DAB23B6883F897
:103FB00034207868FFF7AAFC02F082FD02E07868FE
:103FC000FFF7A4FC03F01AFF00BF0837BD4680BD11
:103FD0009807FE1F9407FE1F80B485B000AF78607D
:103FE0007B68002B03DA4FF0FF33FB6027E07B6830
:103FF000164A82FB03129211DB17D31A4FF47A721E
:1040000002FB03F3FB607A68104B83FB02139911E8
:10401000D317CB1A4FF47A7101FB03F3D31A4FF481
:104020007A7202FB03F303F2E733084A82FB0312BE
:104030009211DB17D31A1A46FB681344FB60FB6826
:1040400018461437BD465DF8047B7047D34D6210A7
:1040500080B400AF00231846BD465DF8047B70476E
:1040600080B400AF00231846BD465DF8047B70475E
:1040700080B400AF00231846BD465DF8047B70474E
:1040800080B400AF00231846BD465DF8047B70473E
:1040900080B582B000AF78600921786802F0ECFB4F
:1040A000034618460837BD4680BD00BF80B584B0C2
:1040B00000AF78600B467B800023FB607B68002BA1
:1040C00004D1D0223A493B4801F094FF7B6818465E
:1040D00002F0B8FB0346092B04D0D12234493648FC
:1040E00001F088FF7B68DB8A03F01003002B1AD1F4
:1040F0007B685B6A002B0FD07B685B6A78689847A7
:10410000F860FB68002B07D07B68FA6819462B48DB
:1041100001F06CFEFB6847E07B68DB8A43F010032C
:104120009AB27B68DA827B68DB8A03F00803002B93
:1041300008D07B681B8B03F00803002B02D06FF0C4
:10414000060331E07B689B6A002B07D07B689B6A83
:104150007A88114678689847F86007E07B8823F0F2
:10416000F0031B051B0D9AB27B681A83FB68002BBA
:1041700003D0FB6813F1060F15D17B681B8B43F04E
:1041800008039AB27B681A837B689B7E0133DAB29C
:104190007B689A767B689B7E002B04D1FF220449C2
:1041A000074801F027FFFB6818461037BD4680BD61
:1041B000149D0000209C0000309C0000C89C000062
:1041C000009D000080B584B000AF78600023FB60E4
:1041D0007B68002B05D14FF489721E491E4801F0FF
:1041E00009FF7B68184602F02DFB0346092B05D01A
:1041F00040F213121749194801F0FCFE7B689B7EC0
:10420000002B02D14FF0FF331FE07B689B7E013B08
:10421000DAB27B689A767B689B7E002B01D0002304
:1042200013E07B68DB6A002B04D07B68DB6A78686C
:104230009847F860FB68002B03D0FB6813F1060F6A
:1042400002D17B6800221A83FB6818461037BD46EE
:1042500080BD00BF249D0000209C0000309C000019
:1042600090B585B000AFF860B9607A603B60FB68DC
:10427000002B05D14FF4A0721849194801F0BAFE7D
:10428000FB68184602F0DEFA0346092B05D040F21F
:1042900041121249134801F0ADFEFB689B7E002BD2
:1042A00005D14FF0FF3000F0EFFE002311E0FB6876
:1042B0001B6B002B08D0FB681C6B3B687A68B968E5
:1042C000F868A047034604E06FF0050000F0DCFE4C
:1042D000002318461437BD4690BD00BF349D000032
:1042E000209C0000309C000090B585B000AFF860C5
:1042F000B9607A603B60FB68002B05D140F26B121D
:104300001849194801F076FEFB68184602F09AFA3F
:104310000346092B05D04FF4B6721249134801F039
:1043200069FEFB689B7E002B05D14FF0FF3000F04B
:10433000ABFE002311E0FB685B6B002B08D0FB6831
:104340005C6B3B687A68B968F868A047034604E08C
:104350006FF0050000F098FE002318461437BD46A4
:1043600090BD00BF449D0000209C0000309C0000D8
:1043700080B582B000AF786039607B68002B05D1D2
:1043800040F2AB120C490D4801F034FE7B68184630
:1043900002F058FA0346092B05D04FF4D6720649AD
:1043A000074801F027FE7B683A68DA610023184667
:1043B0000837BD4680BD00BF549D0000209C000012
:1043C000309C000080B483B000AF786039607B68B7
:1043D0001B683A685A607B681A683B681A607B6899
:1043E0003A681A603B687A685A6000BF0C37BD466D
:1043F0005DF8047B704700BF80B582B000AF786085
:104400007B68143319460348FFF7DCFF00BF083709
:10441000BD4680BD0000FE1F80B483B000AF786051
:104420007B687A685A607B685A687B681A6000BF4C
:104430000C37BD465DF8047B704700BF80B483B085
:1044400000AF786039607B681B683A685A607B68A7
:104450001A683B681A607B683A681A603B687A6839
:104460005A6000BF0C37BD465DF8047B704700BF43
:1044700080B483B000AF786039607B685B683A686D
:104480001A607B685A683B685A607B683A685A6071
:104490003B687A681A6000BF0C37BD465DF8047B44
:1044A000704700BF80B483B000AF78607B681B6842
:1044B0007A6852685A607B685B687A6812681A602A
:1044C0007B687A685A607B685A687B681A6000BFAC
:1044D0000C37BD465DF8047B704700BF80B483B0E5
:1044E00000AF78607B681A687B689A420CBF012332
:1044F0000023DBB218460C37BD465DF8047B7047DD
:1045000080B582B000AF78607B6814331846FFF73F
:1045100083FF002318460837BD4680BD80B588B0AC
:1045200000AFF860B9603B601346FB713968B8684A
:1045300003F07EF8B861BB69002B01D0BB693FE096
:10454000FB79002B02D0012B07D031E0BB6814337C
:104550001946F868FFF78CFF31E0FB681B68FB61C8
:1045600017E0FB69143B7B61BB6893F835207B69DE
:1045700093F835309A4209D27B6903F11402BB6883
:10458000143319461046FFF773FF06E0FB691B68FA
:10459000FB61FA69FB689A42E3D1FA69FB689A42C7
:1045A0000CD1BB6814331946F868FFF761FF05E0CA
:1045B000AD220549054801F01DFD00E000BF0023C4
:1045C00018462037BD4680BD6CA20000709D0000DB
:1045D00080B584B000AF78607B681B68143BFB60DB
:1045E000FB6800221A63F86803F090F8002318466D
:1045F0001037BD4680BD00BF80B584B000AFF86005
:10460000B9607A60FB70FB68002B05D14FF49B7298
:104610001749184801F0EEFC7B68B3F5803F05D3DD
:1046200040F237121249144801F0E4FCFB78002BE9
:1046300008D0FB78012B05D04FF49C720C490F4831
:1046400001F0D8FCFB68BA680221184601F0A2FF0D
:10465000FB681846FFF754FF7B689AB2FB689A83A1
:10466000FB68FA785A72002318461037BD4680BDA1
:1046700050A20000749D0000849D0000989D0000E1
:1046800080B58AB000AFF860B9607A60FB68002B33
:1046900005D14FF4FA725B495B4801F0ABFCFB6853
:1046A000184602F0CFF80346022B05D040F2F5126F
:1046B0005449564801F09EFC554B1B68002B04D012
:1046C000534B1B68FA6810469847FFF71BF978624E
:1046D000FB689B8B002B09D0FB689B8B013B9AB23C
:1046E000FB689A83786AFFF711F97CE0BB68002BBE
:1046F00005D1786AFFF70AF96FF001037DE0FFF753
:1047000001F9386202F092FB0346002B09D03D49C3
:10471000404801F06BFB40F215223A493E4801F057
:1047200069FCFFF7EFF8F86102F0B2FC0346002BDA
:1047300009D13449394801F059FB40F21522314979
:10474000354801F057FCFFF7DDF8B86100F06CFC6C
:104750000346002B09D02B49314801F047FB40F2BA
:10476000152228492C4801F045FCB869FFF7CEF81E
:10477000F869FFF7CBF8386AFFF7C8F802F088FC51
:1047800078617B696FF008021A63FB6803F114001B
:10479000FB685A7A7B687969FFF7C0FE38613B692C
:1047A000002B04D0786AFFF7B1F83B6925E0BB68BD
:1047B000002B0CDD7B69583307F1080200211846F5
:1047C00003F084FA7B695833184603F01BF9786AC2
:1047D000FFF79CF802F074F97B691B6B002B02D089
:1047E0007B691B6B09E00F4B1B68002B04D00D4B42
:1047F0001B68FA6810469847002318462837BD46BC
:1048000080BD00BF5CA20000749D0000D49D00002C
:10481000280BFE1FB09E0000709D0000DC9E000073
:104820004C9E0000240BFE1F80B582B000AF786064
:104830003960022239687868FFF722FF034618467C
:104840000837BD4680BD00BF80B584B000AF78603A
:104850007B68002B05D14FF421722749274801F0CE
:10486000C9FB7B68184601F0EDFF0346022B05D01B
:1048700040F285222049224801F0BCFB214B1B68F5
:10488000002B04D01F4B1B687A6810469847002302
:10489000FB60FFF737F8B8607B6814331846FFF702
:1048A0001DFE0346002B07D17B6814331846FFF723
:1048B0008FFE0123FB6012E07B689B8B4FF6FF723B
:1048C000934206D07B689B8B01339AB27B689A83B4
:1048D00005E0B868FFF71AF86FF0020308E0B8685F
:1048E000FFF714F8FB68012B01D102F0E9F800236F
:1048F00018461037BD4680BD80A20000749D0000A0
:10490000D49D0000200BFE1F80B584B000AF7860FE
:104910007B6814331846FFF7E1FD0346002B09D1ED
:104920007B685B69143BFB60FB6893F835207B6810
:104930005A7702E07B68FF225A777B685B7F1846D4
:104940001037BD4680BD00BF80B487B000AF78602F
:1049500000237B610023FB607B6893F83630FB7497
:104960007B68DB6B7B610DE07B69243BFB60FB6854
:104970005B7FFA7C9A4202D9FB685B7FFB747B69A0
:104980001B687B617B6803F13C027B699A42EBD137
:10499000FB7C18461C37BD465DF8047B704700BFA2
:1049A00080B588B000AFF8600B467A60FB7207F103
:1049B0000B031A460221F86802F082FDFB6893F8A7
:1049C000343003F00403002B39D0FB685B6CFB61CF
:1049D000FB69002B33D0F86901F034FF0346032B49
:1049E0002DD1FB69BB61FB6814331846FFF75AFDF4
:1049F000BB6903F11400BB695A7A7B68F968FFF759
:104A00008DFD78617B69002B18D1B869FFF77CFFB9
:104A1000BB691B6A1846FFF797FF0346FB74BB6927
:104A20001B6A93F83530FA7C9A4208D0BB691B6A3E
:104A3000F97C7A681846FFF7B3FF00E000BF203723
:104A4000BD4680BD80B586B000AF78603960002378
:104A50007B613B6814331846FFF724FD7B681B6AB3
:104A600093F835203B6893F835309A4201D1012301
:104A70007B617B6814331846FFF730FD0346002B3B
:104A800009D17B685B69143B3B613B6993F8352036
:104A90007B685A7702E07B68FF225A777B69002B9C
:104AA00014D07B681B6A1846FFF74EFF0346FB7362
:104AB0007B681B6A93F83530FA7B9A4206D07B6894
:104AC0001B6AF97B02221846FFF76AFF00BF1837FE
:104AD000BD4680BD80B58EB000AFF860B9607A6029
:104AE000FEF710FFF86202F0A1F90346002B09D08F
:104AF000A549A64801F07AF940F27E42A249A448AD
:104B000001F078FAFEF7FEFEB86202F0C1FA034641
:104B1000002B09D19C499F4801F068F940F27E4280
:104B200099499B4801F066FAFEF7ECFE786200F0C6
:104B30007BFA0346002B09D09349974801F056F9B8
:104B400040F27E429049924801F054FA786AFEF7AA
:104B5000DDFEB86AFEF7DAFEF86AFEF7D7FEFB68FC
:104B6000002B05D140F2814287498C4801F042FA7E
:104B7000FB68184601F066FE0346032B05D040F2A1
:104B800082428149864801F035FA02F081FA3862A2
:104B9000FEF7B8FE7863834B1B68002B04D0814B73
:104BA0001B68FA68104698473B6A00221A63FB6844
:104BB0001A6A3B6A9A4210D1FB689B7FFF2B06D092
:104BC000FB689B7F0133DAB2FB689A77CBE0786BA6
:104BD000FEF79CFE6FF00203D2E0FB681B6A002B1D
:104BE00028D1FB683A6A1A62FB68FF225A77FB6891
:104BF00001229A77FB681B7FFF2B11D0FB681A7F7D
:104C0000FB681B6A93F835309A4280F0AC80FB68F1
:104C1000186AFB681B7F7A681946FFF7C1FEA2E09D
:104C20003B6A03F13C02FB68243319461046FFF748
:104C300005FC98E0BB68002B09D13B6A6FF00102CC
:104C40001A63786BFEF762FE6FF0010398E03B6A2F
:104C500093F83530FB77FB6803F11400FB685A7A50
:104C60007B68396AFFF75AFCB861BB69002B04D036
:104C7000786BFEF74BFEBB6982E0FA683B6A5A64C8
:104C8000FB685B7FFA7F9A4211D2FB68FA7F5A7702
:104C9000FB685A7FFB681B6A93F835309A4206D24C
:104CA000FB681B6AF97F02221846FFF779FEBB6892
:104CB000002B0CDD3B6A583307F10802002118462F
:104CC00003F004F83B6A5833184602F09BFE786BF9
:104CD000FEF71CFE01F0F4FEFEF714FE78633B6A5B
:104CE0001B6B002B3FD000233B63FB681B6A93F8D0
:104CF00035203B6A93F835309A4201D101233B635A
:104D0000FB6814331846FFF7E9FB0346002B09D173
:104D1000FB685B69143B7B617B6993F83520FB681A
:104D20005A7702E0FB68FF225A773B6B002B14D0C6
:104D3000FB681B6A1846FFF707FE0346FB77FB6814
:104D40001B6A93F83530FA7F9A4206D0FB681B6ADB
:104D5000F97F02221846FFF723FE786BFEF7D6FD97
:104D60003B6A1B6B0CE0786BFEF7D0FD0E4B1B68AB
:104D7000002B04D00C4B1B68FA68104698470023A0
:104D800018463837BD4680BD90A20000B09E000096
:104D9000709D0000DC9E00004C9E0000149F0000EF
:104DA000289F0000280BFE1F240BFE1F80B582B039
:104DB00000AF78603960022239687868FFF78AFEB0
:104DC000034618460837BD4680BD00BF80B58AB08F
:104DD00000AF78607B68002B05D140F272526B49BE
:104DE0006B4801F007F97B68184601F02BFD03467C
:104DF000032B05D040F273526449664801F0FAF87B
:104E000000237B62FEF77EFD386202F041F9034623
:104E1000002B09D15D49604800F0E8FF4FF4AF6214
:104E20005A495E4801F0E6F8FEF76CFDF86100F0C3
:104E3000FBF80346002B09D05449594800F0D6FF2F
:104E40004FF4AF625149554801F0D4F8F869FEF7C4
:104E50005DFD386AFEF75AFD02F01AF9B861FEF7F7
:104E600051FD78614F4B1B68002B04D04D4B1B68E4
:104E70007A68104698477B681A6ABB699A4209D0DB
:104E8000BB694FF0FF321A637869FEF73FFD4FF0C0
:104E9000FF3376E07B689B7F013BDAB27B689A77D1
:104EA0007B689B7F002B63D17B6824331846FFF718
:104EB000F9FA7B681B7FFF2B06D1BB6993F835207D
:104EC0007B685B7F9A420FD1FF23FB72B869FFF7C3
:104ED0003BFD0346FB7207F10B031A460221B8693A
:104EE00002F0EEFA01237B627B6814331846FFF769
:104EF000F5FA0346002B35D17B685B69143B3B61B7
:104F00003B6914331846FFF7CDFA7B683A691A6299
:104F10007B6801229A773B6903F13C027B6824336A
:104F200019461046FFF78AFA3B6900225A6438692D
:104F300002F0ECFB7B6814331846FFF7CFFA034608
:104F4000002B09D17B685B69143BFB60FB6893F81D
:104F500035207B685A7702E07B68FF225A7701236D
:104F60007B6205E07B6800221A627B68FF225A7729
:104F70007869FEF7CBFC7B6A012B01D101F0A0FD23
:104F8000002318462837BD4680BD00BFA0A2000000
:104F9000149F0000289F0000DC9E0000709D000010
:104FA0004C9E0000200BFE1F80B582B000AFFEF7C4
:104FB000A9FC78600A4B1B78DBB20133DAB2084BEC
:104FC0001A70084B1B68002B02D0064B1B689847D1
:104FD0007868FEF79BFC00BF0837BD4680BD00BF68
:104FE000A407FE1F9C07FE1F80B582B000AFFEF72E
:104FF00089FC78600A4B1B68002B02D0084B1B68A9
:105000009847084B1B78DBB2013BDAB2054B1A70AC
:105010007868FEF77BFC00BF0837BD4680BD00BF47
:10502000A007FE1FA407FE1F80B582B000AFFEF7E9
:1050300069FC7860054B1B78FB707868FEF766FCAE
:10504000FB7818460837BD4680BD00BFA407FE1F89
:1050500080B483B000AF78607B68002B02DA7B6895
:105060005B427B607B680B2B02DD064BDB6A03E057
:10507000044A7B6852F8233018460C37BD465DF869
:10508000047B70470800FE1F80B584B000AF7860D5
:105090000023FB60FFF7C8FF0346002B03D00A4A3A
:1050A0007B6813600CE001F0F3FFF860FB68002BF5
:1050B00003D1054A7B68136002E0FB687A681A63D3
:1050C0001037BD4680BD00BFA807FE1F80B48BB05F
:1050D00000AFF860B9607A6000237B62FB683B62D6
:1050E00000237B610023FB61BB68FB767B68032B9D
:1050F00044D9FB6803F00303002B3FD1FB68FB613D
:1051000000237B6208E007F114027B6A1344FA7EF5
:105110001A707B6A01337B627B6A032BF3D916E03A
:10512000FB691A1DFA617A691A60FB691A1DFA6136
:105130007A691A60FB691A1DFA617A691A60FB695B
:105140001A1DFA617A691A607B68103B7B607B6884
:105150000F2BE5D807E0FB691A1DFA617A691A601E
:105160007B68043B7B607B68032BF4D8FB693B6264
:1051700004E03B6A5A1C3A62FA7E1A707B685A1E37
:105180007A60002BF5D1FB6818462C37BD465DF8D8
:10519000047B704780B48BB000AFF860B9607A6070
:1051A000FB687B62BB683B620023FB610023BB6141
:1051B0007B687B617B690F2B4DD93A6A7B6A13430D
:1051C00003F00303002B46D17B6AFB613B6ABB61A2
:1051D00022E0FB691A1DFA61BA69111DB9611268F2
:1051E0001A60FB691A1DFA61BA69111DB96112686A
:1051F0001A60FB691A1DFA61BA69111DB96112685A
:105200001A60FB691A1DFA61BA69111DB961126849
:105210001A607B69103B7B617B690F2BD9D80AE050
:10522000FB691A1DFA61BA69111DB96112681A6029
:105230007B69043B7B617B69032BF1D8FB697B6253
:10524000BB693B6207E07B6A5A1C7A623A6A511C6E
:10525000396212781A707B695A1E7A61002BF2D17A
:10526000FB6818462C37BD465DF8047B704700BFCD
:1052700080B487B000AFF860B9607A60FB687B618A
:10528000BB683B613A697B699A4226D23A697B687E
:105290001A447B699A4220D97A697B6813447B61FE
:1052A0003A697B6813443B6109E07B69013B7B61A0
:1052B0003B69013B3B613B691A787B691A707B68EB
:1052C0005A1E7A60002BF0D10CE07B695A1C7A617F
:1052D0003A69511C396112781A707B685A1E7A60DB
:1052E000002BF2D1FB6818461C37BD465DF8047BE5
:1052F000704700BF80B487B000AFF860B9607A60D3
:105300007B68002B21D0FB687B61BB683B617B69BC
:105310005A1C7A613A69511C396112781A701B78EB
:10532000002B0CD104E07B695A1C7A6100221A70B0
:105330007B68013B7B607B68002BF4D105E07B68D8
:10534000013B7B607B68002BE1D1FB6818461C3772
:10535000BD465DF8047B704780B487B000AFF8604D
:10536000B9607A600023FB7515E0FB681A78BB68AA
:10537000591CB9601B78D31ADBB2FB7597F917304B
:10538000002B0BD1FB685A1CFA601B78002B05D050
:105390007B68013B7B607B68002BE6D197F9173077
:1053A00018461C37BD465DF8047B704780B483B057
:1053B00000AF7860396005E07B6801337B603B6853
:1053C00001333B607B681B78002B05D07B681A7823
:1053D0003B681B789A42EFD07B681B781A463B6883
:1053E0001B78D31A18460C37BD465DF8047B70470E
:1053F00080B485B000AF78600023FB607B68FB6001
:1054000002E0FB680133FB60FB681B78002BF8D1DE
:10541000FA687B68D31A18461437BD465DF8047BDA
:10542000704700BF80B582B002AF0B4800F0DEFCD1
:105430000A4800F0DBFC0A4B01930A4B009300235F
:1054400000220521084800F0D1FC084800F0CEFCFD
:1054500000BFBD4680BD00BF7CA3000088A3000044
:10546000D0A30000DCA30000ACA30000E8A3000070
:1054700080B485B000AF786039607B681B683A689B
:10548000B3FBF2F102FB01F29B1AFB607B681A6826
:105490003B68B2FBF3F27B681A60FB68184614376E
:1054A000BD465DF8047B704780B485B000AF78607E
:1054B0000023FB600EE0FA6813469B0013445B0078
:1054C00018467B681B68591C7A6811601B78034476
:1054D000303BFB607B681B681B78303B092BEAD9AB
:1054E000FB6818461437BD465DF8047B704700BF63
:1054F00090B593B000AFF860B9607A603B6000236C
:1055000087F83B30002387F8473007F1100320224B
:105510000021184602F018FE3B6E7B6300233B63BC
:1055200000233B640023FB63FB6DFB637B6E03F096
:105530004003002B01D0A34B00E0A34B3B637B6EE9
:1055400003F01003002B03D07B6E23F001037B6676
:105550007B6E03F00103002B01D0302300E02023F9
:1055600087F83B30002387F847307B6E03F0020357
:10557000002B42D0BB6D682B04D06C2B0FD04C2B72
:105580000DD016E07B681BB2002B1CDA2D2387F8A8
:1055900047307B689BB25B429BB27B6013E07B68C9
:1055A000002B12DA2D2387F847307B685B427B6043
:1055B0000BE07B68002B0ADA2D2387F847307B68E5
:1055C0005B427B6003E000BF02E000BF00E000BF81
:1055D00097F847302D2B10D07B6E03F00403002B7F
:1055E00003D02B2387F8473007E07B6E03F00803D6
:1055F000002B02D0202387F847307B6E03F0200376
:10560000002B0FD03B68022B02D03B68102B03D13C
:10561000FB6B023BFB6305E03B68082B02D1FB6B95
:10562000013BFB6300233B647B68002B1BD13B6C7D
:105630005A1C3A6407F148021344302203F8382C0C
:1056400014E03C6C631C3B643B1D39681846FFF753
:105650000FFF03461A463B6B13441A7807F14803C1
:10566000234403F8382C7B68002BEAD13A6C3B6E5C
:105670009A4201DD3B6C3B66FA6B3B6ED31AFB63CF
:105680007B6E03F01103002B19D197F84730002BE4
:1056900010D0FB6B002B0DDDFB6B013BFB6309E0C6
:1056A000FA68BB689A4202D2FB6820221A70FB6833
:1056B0000133FB60FB6B5A1EFA63002BF0DC97F89A
:1056C0004730002B0DD0FA68BB689A4203D2FB68C2
:1056D00097F847201A70FB6B013BFB63FB680133B3
:1056E000FB607B6E03F02003002B43D03B68022B52
:1056F00014D1FA68BB689A4202D2FB6830221A7051
:10570000FB680133FB60FA68BB689A4202D2FB680F
:1057100062221A70FB680133FB602BE03B68082BA8
:105720000AD1FA68BB689A4202D2FB6830221A702A
:10573000FB680133FB601DE03B68102B1AD1FA684F
:10574000BB689A4202D2FB6830221A70FB680133B0
:10575000FB60FA68BB689A4209D27B6E03F0400393
:10576000002B01D0582200E07822FB681A70FB68F9
:105770000133FB607B6E03F01003002B1BD10AE0AA
:10578000FA68BB689A4203D2FB6897F83B201A700C
:10579000FB680133FB60FB6B5A1EFA63002BEFDCE6
:1057A00009E0FA68BB689A4202D2FB6830221A709C
:1057B000FB680133FB603B6E5A1E3A663A6C9342BB
:1057C000EFDC11E084A4000098A40000FA68BB6834
:1057D0009A4206D207F110023B6C13441A78FB6818
:1057E0001A70FB680133FB603B6C5A1E3A64002B55
:1057F0000DDD7B6B002BE9D109E0FA68BB689A42AA
:1058000002D2FB6820221A70FB680133FB60FB6B3D
:105810005A1EFA63002BF0DCFB6818464C37BD4675
:1058200090BD00BF80B592B004AFF860B9607A60F7
:105830003B6000237B6300233B630023FB62002368
:10584000BB6200237B620023FB7400233B620023C6
:10585000FB770023BB7700237B770023BB6100230A
:105860007B61FB68BB62FA68BB6813447B627A6A3F
:10587000FB689A4280F087824FF0FF337B627A6A3E
:10588000FB68D31ABB607EE27B681B78252B0BD0AC
:10589000BA6A7B6A9A4203D27B681A78BB6A1A702A
:1058A000BB6A0133BB626BE20023BB777B680133C9
:1058B0007B607B681B782D2B04D1BB7F43F01003EA
:1058C000BB77F3E77B681B782B2B04D1BB7F43F0BE
:1058D0000403BB77EAE77B681B78202B04D1BB7FEE
:1058E00043F00803BB77E1E77B681B78232B04D1E7
:1058F000BB7F43F02003BB77D8E77B681B78302B56
:1059000004D1BB7F43F00103BB77CFE700BF4FF06B
:10591000FF33BB617B681B78303B092B05D83B1DEF
:105920001846FFF7C1FDB86115E07B681B782A2B8C
:1059300011D17B6801337B603B681A1D3A601B689C
:10594000BB61BB69002B06DABB695B42BB61BB7FF5
:1059500043F01003BB774FF0FF337B617B681B780C
:105960002E2B1ED17B6801337B607B681B78303B1C
:10597000092B05D83B1D1846FFF796FD78610BE013
:105980007B681B782A2B07D17B6801337B603B68DF
:105990001A1D3A601B687B617B69002B01DA0023CA
:1059A0007B6100237B777B681B78682B03D07B6847
:1059B0001B786C2B05D17B681B787B777B68013368
:1059C0007B600A23FB777B681B78253B532B00F217
:1059D000888101A252F823F0A95C0000E35C00007A
:1059E000E35C0000E35C0000E35C0000E35C0000BB
:1059F000E35C0000E35C0000E35C0000E35C0000AB
:105A0000E35C0000E35C0000E35C0000E35C00009A
:105A1000E35C0000E35C0000E35C0000E35C00008A
:105A2000E35C0000E35C0000E35C0000E35C00007A
:105A3000E35C0000E35C0000E35C0000E35C00006A
:105A4000E35C0000E35C0000E35C0000E35C00005A
:105A5000E35C0000E35C0000E35C0000E35C00004A
:105A6000E35C0000E35C0000E35C0000E35C00003A
:105A7000E35C0000E35C0000E35C0000E35C00002A
:105A8000E35C0000E35C0000E35C0000E35C00001A
:105A9000E35C0000E35C0000E35C0000E35C00000A
:105AA000E35C0000CB5C0000E35C0000E35C000012
:105AB000E35C0000E35C0000E35C0000E35C0000EA
:105AC000E35C0000E35C0000E35C0000BF5C0000FE
:105AD000295B0000D95C0000E35C0000E35C00008F
:105AE000E35C0000E35C0000D95C0000E35C0000C4
:105AF000E35C0000E35C0000E35C0000E35C0000AA
:105B0000C55C00005D5C0000E35C0000E35C00003D
:105B1000975B0000E35C00001F5D0000E35C000099
:105B2000E35C0000D35C0000BB7F03F01003002B9C
:105B300010D109E0BA6A7B6A9A4202D2BB6A20227B
:105B40001A70BB6A0133BB62BB69013BBB61BB69B5
:105B5000002BEFDC3B681A1D3A601B68FB74BA6AC5
:105B60007B6A9A4202D2BB6AFA7C1A70BB6A013322
:105B7000BB6209E0BA6A7B6A9A4202D2BB6A2022FF
:105B80001A70BB6A0133BB62BB69013BBB61BB6975
:105B9000002BEFDCF4E03B681A1D3A601B683B62A7
:105BA0003B6A002B01D1854B3B620023FB6202E084
:105BB000FB6A0133FB62FA6ABB699A4205D0FB6A51
:105BC0003A6A13441B78002BF2D17B69002B05DD68
:105BD000FA6A7B699A4201DD7B69FB62BB7F03F055
:105BE0001003002B10D109E0BA6A7B6A9A4202D2F4
:105BF000BB6A20221A70BB6A0133BB62BB695A1EA2
:105C0000BA61FA6A9342EFDC00233B6310E0BA6AA0
:105C10007B6A9A4203D23B6A1A78BB6A1A70BB6AE3
:105C20000133BB623B6A01333B623B6B01333B6335
:105C30003A6BFB6A9A42EADB09E0BA6A7B6A9A42EB
:105C400002D2BB6A20221A70BB6A0133BB62BB69F5
:105C50005A1EBA61FA6A9342EFDC91E0BB69B3F174
:105C6000FF3F0CD10823BB61BB690233BB61BB7F23
:105C700043F02003BB77BB7F43F00103BB773B6856
:105C80001A1D3A601B6819467B7FBA7F03927A69B6
:105C90000292BA690192009310230A46796AB86A9F
:105CA000FFF726FCB8626BE0BA6A7B6A9A4202D2BE
:105CB000BB6A25221A70BB6A0133BB6260E0022313
:105CC000FB772DE00823FB772AE0BB7F43F04003FE
:105CD000BB771023FB7723E0BB7F43F00203BB7746
:105CE0001DE0BA6A7B6A9A4202D2BB6A25221A7008
:105CF000BB6A0133BB627B681B78002B0BD0BA6A8E
:105D00007B6A9A4203D27B681A78BB6A1A70BB6AB4
:105D10000133BB6234E07B68013B7B6030E000BF55
:105D20007B7F6C2B05D13B681A1D3A601B687B6337
:105D300016E07B7F682B0ED13B681A1D3A601B680A
:105D40009BB27B63BB7F03F00203002B08D07B6B0D
:105D50001BB27B6304E03B681A1D3A601B687B63DF
:105D6000F97F7B7FBA7F03927A690292BA690192C6
:105D700000930B467A6B796AB86AFFF7B9FBB86291
:105D80007B6801337B607B681B78002B7FF47CADE4
:105D9000BB68002B0BD0BA6A7B6A9A4203D2BB6AFB
:105DA00000221A7003E07B6A013B00221A70BA6A73
:105DB000FB68D31A18463837BD4680BD14A40000CE
:105DC00080B400AF034B1B681846BD465DF8047BEA
:105DD000704700BFAC07FE1F80B483B000AF78608F
:105DE00000BF0C37BD465DF8047B70470FB480B52B
:105DF00082B000AF00237B6007F114033B603B6877
:105E00003A697F211048FFF70DFD03467B607B68F0
:105E10007F2B01D97F237B600C4B1B68002B03D1A8
:105E20000948FFF7D9FF06E0084B18687B68064A67
:105E30000021FEF759FA7B6818460837BD46BDE8D1
:105E4000804004B0704700BFE807FE1FAC07FE1F8C
